{
    "contractName": "ZubToken",
    "abi": [
        {
            "inputs": [
                {
                    "internalType": "uint256",
                    "name": "_initialSupply",
                    "type": "uint256"
                }
            ],
            "stateMutability": "nonpayable",
            "type": "constructor"
        },
        {
            "anonymous": false,
            "inputs": [
                {
                    "indexed": false,
                    "internalType": "address",
                    "name": "_owner",
                    "type": "address"
                },
                {
                    "indexed": false,
                    "internalType": "address",
                    "name": "_to",
                    "type": "address"
                },
                {
                    "indexed": false,
                    "internalType": "uint256",
                    "name": "_value",
                    "type": "uint256"
                }
            ],
            "name": "Approval",
            "type": "event"
        },
        {
            "anonymous": false,
            "inputs": [
                {
                    "indexed": false,
                    "internalType": "address",
                    "name": "_from",
                    "type": "address"
                },
                {
                    "indexed": false,
                    "internalType": "address",
                    "name": "_to",
                    "type": "address"
                },
                {
                    "indexed": false,
                    "internalType": "uint256",
                    "name": "_value",
                    "type": "uint256"
                }
            ],
            "name": "Transfer",
            "type": "event"
        },
        {
            "inputs": [
                {
                    "internalType": "address",
                    "name": "",
                    "type": "address"
                },
                {
                    "internalType": "address",
                    "name": "",
                    "type": "address"
                }
            ],
            "name": "allowance",
            "outputs": [
                {
                    "internalType": "uint256",
                    "name": "",
                    "type": "uint256"
                }
            ],
            "stateMutability": "view",
            "type": "function"
        },
        {
            "inputs": [
                {
                    "internalType": "address",
                    "name": "_spender",
                    "type": "address"
                },
                {
                    "internalType": "uint256",
                    "name": "_value",
                    "type": "uint256"
                }
            ],
            "name": "approved",
            "outputs": [
                {
                    "internalType": "bool",
                    "name": "success",
                    "type": "bool"
                }
            ],
            "stateMutability": "nonpayable",
            "type": "function"
        },
        {
            "inputs": [
                {
                    "internalType": "address",
                    "name": "",
                    "type": "address"
                }
            ],
            "name": "balanceOf",
            "outputs": [
                {
                    "internalType": "uint256",
                    "name": "",
                    "type": "uint256"
                }
            ],
            "stateMutability": "view",
            "type": "function"
        },
        {
            "inputs": [],
            "name": "name",
            "outputs": [
                {
                    "internalType": "string",
                    "name": "",
                    "type": "string"
                }
            ],
            "stateMutability": "view",
            "type": "function"
        },
        {
            "inputs": [],
            "name": "standard",
            "outputs": [
                {
                    "internalType": "string",
                    "name": "",
                    "type": "string"
                }
            ],
            "stateMutability": "view",
            "type": "function"
        },
        {
            "inputs": [],
            "name": "symbol",
            "outputs": [
                {
                    "internalType": "string",
                    "name": "",
                    "type": "string"
                }
            ],
            "stateMutability": "view",
            "type": "function"
        },
        {
            "inputs": [],
            "name": "totalSupply",
            "outputs": [
                {
                    "internalType": "uint256",
                    "name": "",
                    "type": "uint256"
                }
            ],
            "stateMutability": "view",
            "type": "function"
        },
        {
            "inputs": [
                {
                    "internalType": "address",
                    "name": "_to",
                    "type": "address"
                },
                {
                    "internalType": "uint256",
                    "name": "_value",
                    "type": "uint256"
                }
            ],
            "name": "transfer",
            "outputs": [
                {
                    "internalType": "bool",
                    "name": "success",
                    "type": "bool"
                }
            ],
            "stateMutability": "payable",
            "type": "function"
        },
        {
            "inputs": [
                {
                    "internalType": "address",
                    "name": "_from",
                    "type": "address"
                },
                {
                    "internalType": "address",
                    "name": "_to",
                    "type": "address"
                },
                {
                    "internalType": "uint256",
                    "name": "_value",
                    "type": "uint256"
                }
            ],
            "name": "transferFrom",
            "outputs": [
                {
                    "internalType": "bool",
                    "name": "success",
                    "type": "bool"
                }
            ],
            "stateMutability": "nonpayable",
            "type": "function"
        }
    ],
    "bytecode": "60c060405260096080819052682d3ab1102a37b5b2b760b91b60a090815261002a91600091906100d3565b50604080518082019091526001808252602d60f91b602090920191825261005191816100d3565b5060408051808201909152600e8082526d05a756220546f6b656e2076312e360941b6020909201918252610087916002916100d3565b5034801561009457600080fd5b50604051610880380380610880833981810160405260208110156100b757600080fd5b505133600090815260046020526040902081905560035561016e565b828054600181600116156101000203166002900490600052602060002090601f016020900481019282601f1061011457805160ff1916838001178555610141565b82800160010185558215610141579182015b82811115610141578251825591602001919060010190610126565b5061014d929150610151565b5090565b61016b91905b8082111561014d5760008155600101610157565b90565b6107038061017d6000396000f3fe6080604052600436106100865760003560e01c806370a082311161005957806370a08231146101a857806395d89b41146101db578063a9059cbb146101f0578063c14482841461021c578063dd62ed3e1461025557610086565b806306fdde031461008b57806318160ddd1461011557806323b872dd1461013c5780635a3b7e4214610193575b600080fd5b34801561009757600080fd5b506100a0610290565b6040805160208082528351818301528351919283929083019185019080838360005b838110156100da5781810151838201526020016100c2565b50505050905090810190601f1680156101075780820380516001836020036101000a031916815260200191505b509250505060405180910390f35b34801561012157600080fd5b5061012a61031e565b60408051918252519081900360200190f35b34801561014857600080fd5b5061017f6004803603606081101561015f57600080fd5b506001600160a01b03813581169160208101359091169060400135610324565b604080519115158252519081900360200190f35b34801561019f57600080fd5b506100a0610491565b3480156101b457600080fd5b5061012a600480360360208110156101cb57600080fd5b50356001600160a01b03166104e9565b3480156101e757600080fd5b506100a06104fb565b61017f6004803603604081101561020657600080fd5b506001600160a01b038135169060200135610555565b34801561022857600080fd5b5061017f6004803603604081101561023f57600080fd5b506001600160a01b038135169060200135610619565b34801561026157600080fd5b5061012a6004803603604081101561027857600080fd5b506001600160a01b038135811691602001351661068a565b6000805460408051602060026001851615610100026000190190941693909304601f810184900484028201840190925281815292918301828280156103165780601f106102eb57610100808354040283529160200191610316565b820191906000526020600020905b8154815290600101906020018083116102f957829003601f168201915b505050505081565b60035481565b6001600160a01b038316600090815260046020526040812054821115610389576040805162461bcd60e51b81526020600482015260156024820152746e6f742073756666696369656e7420626c616e636560581b604482015290519081900360640190fd5b6001600160a01b0384166000908152600560209081526040808320338452909152902054821115610401576040805162461bcd60e51b815260206004820152601e60248201527f616c6c6f77616e63652073686f756c64206265206d61696e7461696e65640000604482015290519081900360640190fd5b6001600160a01b038085166000818152600460209081526040808320805488900390559387168083528483208054880190558383526005825284832033845282529184902080548790039055835192835282015280820184905290517fddf252ad1be2c89b69c2b068fc378daa952ba7f163c4a11628f55a4df523b3ef9181900360600190a15060019392505050565b6002805460408051602060018416156101000260001901909316849004601f810184900484028201840190925281815292918301828280156103165780601f106102eb57610100808354040283529160200191610316565b60046020526000908152604090205481565b60018054604080516020600284861615610100026000190190941693909304601f810184900484028201840190925281815292918301828280156103165780601f106102eb57610100808354040283529160200191610316565b336000908152600460205260408120548211156105a35760405162461bcd60e51b81526004018080602001828103825260268152602001806106a86026913960400191505060405180910390fd5b336000818152600460209081526040808320805487900390556001600160a01b03871680845292819020805487019055805193845290830191909152818101849052517fddf252ad1be2c89b69c2b068fc378daa952ba7f163c4a11628f55a4df523b3ef9181900360600190a150600192915050565b3360008181526005602090815260408083206001600160a01b0387168085529083528184208690558151948552918401919091528281018490525190917f8c5be1e5ebec7d5bd14f71427d1e84f3dd0314c0f7b2291e5b200ac8c7c3b925919081900360600190a150600192915050565b60056020908152600092835260408084209091529082529020548156fe62616c616e63652073686f756c64206265206d6f7265207468656e2073656e742076616c7565a26469706673582212202c9b7af818bd73cfa66b32f74423221469f4c60a8d109305b12cbcd94120155b64736f6c63430006010033",
    "sourcePath": "c:/Users/Lenovo/Documents/blockchain studies/ZubToken/contracts/ZubToken.sol",
    "compiler": {
        "name": "solc",
        "version": "0.6.1+commit.e6f7d5a4"
    },
    "functionHashes": {
        "allowance(address,address)": "dd62ed3e",
        "approved(address,uint256)": "c1448284",
        "balanceOf(address)": "70a08231",
        "name()": "06fdde03",
        "standard()": "5a3b7e42",
        "symbol()": "95d89b41",
        "totalSupply()": "18160ddd",
        "transfer(address,uint256)": "a9059cbb",
        "transferFrom(address,address,uint256)": "23b872dd"
    },
    "gasEstimates": {
        "creation": {
            "codeDepositCost": "359000",
            "executionCost": "infinite",
            "totalCost": "infinite"
        },
        "external": {
            "allowance(address,address)": "1305",
            "approved(address,uint256)": "22141",
            "balanceOf(address)": "1124",
            "name()": "infinite",
            "standard()": "infinite",
            "symbol()": "infinite",
            "totalSupply()": "1021",
            "transfer(address,uint256)": "infinite",
            "transferFrom(address,address,uint256)": "66596"
        }
    }
}