{
  "contractName": "BoysToken",
  "abi": [
    {
      "constant": true,
      "inputs": [],
      "name": "totalSupply",
      "outputs": [
        {
          "internalType": "uint256",
          "name": "",
          "type": "uint256"
        }
      ],
      "payable": false,
      "stateMutability": "view",
      "type": "function"
    },
    {
      "constant": false,
      "inputs": [],
      "name": "boysToken",
      "outputs": [],
      "payable": false,
      "stateMutability": "nonpayable",
      "type": "function"
    }
  ],
  "bytecode": "0x6080604052348015600f57600080fd5b5060a28061001e6000396000f3fe6080604052348015600f57600080fd5b506004361060325760003560e01c806318160ddd14603757806389b0db7d146053575b600080fd5b603d605b565b6040518082815260200191505060405180910390f35b60596061565b005b60005481565b620f424060008190555056fea265627a7a723158205e37674ad2b2511538a47c9c0c016f344fb3537ecfac668bc0fda1fa52e61a7964736f6c63430005100032",
  "source": "pragma solidity >=0.4.21 < 0.7.0;\r\ncontract BoysToken{\r\n    uint256 public totalSupply;\r\n    function boysToken( ) public {\r\n        totalSupply = 1000000;\r\n    }\r\n}",
  "sourcePath": "C:\\Users\\Lenovo\\Documents\\blockchain studies\\boysToken\\contracts\\boysToken.sol",
  "compiler": {
    "name": "solc",
    "version": "0.5.16+commit.9c3226ce.Emscripten.clang"
  },
  "schemaVersion": "3.0.23",
  "updatedAt": "2020-02-23T20:26:31.894Z",
  "devdoc": {
    "methods": {}
  },
  "userdoc": {
    "methods": {}
  }
}