{
  "contractName": "ZubTokenSale",
  "abi": [
    {
      "inputs": [
        {
          "internalType": "contract ZubToken",
          "name": "_tokenContract",
          "type": "address"
        },
        {
          "internalType": "uint256",
          "name": "_tokenPrice",
          "type": "uint256"
        }
      ],
      "payable": false,
      "stateMutability": "nonpayable",
      "type": "constructor"
    },
    {
      "anonymous": false,
      "inputs": [
        {
          "indexed": false,
          "internalType": "address",
          "name": "_buyer",
          "type": "address"
        },
        {
          "indexed": false,
          "internalType": "uint256",
          "name": "_amount",
          "type": "uint256"
        }
      ],
      "name": "Sell",
      "type": "event"
    },
    {
      "constant": true,
      "inputs": [],
      "name": "numberOfTokens",
      "outputs": [
        {
          "internalType": "uint256",
          "name": "",
          "type": "uint256"
        }
      ],
      "payable": false,
      "stateMutability": "view",
      "type": "function"
    },
    {
      "constant": true,
      "inputs": [],
      "name": "tokenContract",
      "outputs": [
        {
          "internalType": "contract ZubToken",
          "name": "",
          "type": "address"
        }
      ],
      "payable": false,
      "stateMutability": "view",
      "type": "function"
    },
    {
      "constant": true,
      "inputs": [],
      "name": "tokenPrice",
      "outputs": [
        {
          "internalType": "uint256",
          "name": "",
          "type": "uint256"
        }
      ],
      "payable": false,
      "stateMutability": "view",
      "type": "function"
    },
    {
      "constant": true,
      "inputs": [],
      "name": "tokensSold",
      "outputs": [
        {
          "internalType": "uint256",
          "name": "",
          "type": "uint256"
        }
      ],
      "payable": false,
      "stateMutability": "view",
      "type": "function"
    },
    {
      "constant": false,
      "inputs": [
        {
          "internalType": "uint256",
          "name": "_numberOfTokens",
          "type": "uint256"
        }
      ],
      "name": "buyingToken",
      "outputs": [],
      "payable": true,
      "stateMutability": "payable",
      "type": "function"
    },
    {
      "constant": false,
      "inputs": [],
      "name": "endSale",
      "outputs": [],
      "payable": false,
      "stateMutability": "nonpayable",
      "type": "function"
    }
  ],
  "bytecode": "0x6080604052733906a021acc2f4791ac63de654c0ba3784f1c56e6000806101000a81548173ffffffffffffffffffffffffffffffffffffffff021916908373ffffffffffffffffffffffffffffffffffffffff16021790555034801561006457600080fd5b50604051610b24380380610b248339818101604052604081101561008757600080fd5b810190808051906020019092919080519060200190929190505050336000806101000a81548173ffffffffffffffffffffffffffffffffffffffff021916908373ffffffffffffffffffffffffffffffffffffffff16021790555081600160006101000a81548173ffffffffffffffffffffffffffffffffffffffff021916908373ffffffffffffffffffffffffffffffffffffffff1602179055508060028190555050506109e98061013b6000396000f3fe6080604052600436106100555760003560e01c8063380d831b1461005a57806345bfd5c914610071578063518ab2a81461009f57806355a373d6146100ca5780637ff9b59614610121578063f9f16ef21461014c575b600080fd5b34801561006657600080fd5b5061006f610177565b005b61009d6004803603602081101561008757600080fd5b8101908080359060200190929190505050610514565b005b3480156100ab57600080fd5b506100b461089e565b6040518082815260200191505060405180910390f35b3480156100d657600080fd5b506100df6108a4565b604051808273ffffffffffffffffffffffffffffffffffffffff1673ffffffffffffffffffffffffffffffffffffffff16815260200191505060405180910390f35b34801561012d57600080fd5b506101366108ca565b6040518082815260200191505060405180910390f35b34801561015857600080fd5b506101616108d0565b6040518082815260200191505060405180910390f35b6000809054906101000a900473ffffffffffffffffffffffffffffffffffffffff1673ffffffffffffffffffffffffffffffffffffffff163373ffffffffffffffffffffffffffffffffffffffff1614610239576040517f08c379a00000000000000000000000000000000000000000000000000000000081526004018080602001828103825260188152602001807f6f6e6c792061646d696e2063616e206265206d6173746572000000000000000081525060200191505060405180910390fd5b600160009054906101000a900473ffffffffffffffffffffffffffffffffffffffff1673ffffffffffffffffffffffffffffffffffffffff1663a9059cbb6000809054906101000a900473ffffffffffffffffffffffffffffffffffffffff16600160009054906101000a900473ffffffffffffffffffffffffffffffffffffffff1673ffffffffffffffffffffffffffffffffffffffff166370a082316000809054906101000a900473ffffffffffffffffffffffffffffffffffffffff166040518263ffffffff1660e01b8152600401808273ffffffffffffffffffffffffffffffffffffffff1673ffffffffffffffffffffffffffffffffffffffff16815260200191505060206040518083038186803b15801561035957600080fd5b505afa15801561036d573d6000803e3d6000fd5b505050506040513d602081101561038357600080fd5b81019080805190602001909291905050506040518363ffffffff1660e01b8152600401808373ffffffffffffffffffffffffffffffffffffffff1673ffffffffffffffffffffffffffffffffffffffff16815260200182815260200192505050602060405180830381600087803b1580156103fd57600080fd5b505af1158015610411573d6000803e3d6000fd5b505050506040513d602081101561042757600080fd5b81019080805190602001909291905050506104aa576040517f08c379a00000000000000000000000000000000000000000000000000000000081526004018080602001828103825260118152602001807f747261736e666572202620626c616e636500000000000000000000000000000081525060200191505060405180910390fd5b6000809054906101000a900473ffffffffffffffffffffffffffffffffffffffff1673ffffffffffffffffffffffffffffffffffffffff166108fc479081150290604051600060405180830381858888f19350505050158015610511573d6000803e3d6000fd5b50565b610520816002546108d6565b3414610577576040517f08c379a00000000000000000000000000000000000000000000000000000000081526004018080602001828103825260258152602001806109906025913960400191505060405180910390fd5b80600160009054906101000a900473ffffffffffffffffffffffffffffffffffffffff1673ffffffffffffffffffffffffffffffffffffffff166370a082316000809054906101000a900473ffffffffffffffffffffffffffffffffffffffff166040518263ffffffff1660e01b8152600401808273ffffffffffffffffffffffffffffffffffffffff1673ffffffffffffffffffffffffffffffffffffffff16815260200191505060206040518083038186803b15801561063857600080fd5b505afa15801561064c573d6000803e3d6000fd5b505050506040513d602081101561066257600080fd5b810190808051906020019092919050505010156106ca576040517f08c379a000000000000000000000000000000000000000000000000000000000815260040180806020018281038252602481526020018061096c6024913960400191505060405180910390fd5b600160009054906101000a900473ffffffffffffffffffffffffffffffffffffffff1673ffffffffffffffffffffffffffffffffffffffff1663a9059cbb33836040518363ffffffff1660e01b8152600401808373ffffffffffffffffffffffffffffffffffffffff1673ffffffffffffffffffffffffffffffffffffffff16815260200182815260200192505050602060405180830381600087803b15801561077357600080fd5b505af1158015610787573d6000803e3d6000fd5b505050506040513d602081101561079d57600080fd5b8101908080519060200190929190505050610820576040517f08c379a00000000000000000000000000000000000000000000000000000000081526004018080602001828103825260198152602001807f6d73672073656e6465722063616e2073656e6420746f6b656e0000000000000081525060200191505060405180910390fd5b806004600082825401925050819055507f5e5e995ce3133561afceaa51a9a154d5db228cd7525d34df5185582c18d3df093382604051808373ffffffffffffffffffffffffffffffffffffffff1673ffffffffffffffffffffffffffffffffffffffff1681526020018281526020019250505060405180910390a150565b60045481565b600160009054906101000a900473ffffffffffffffffffffffffffffffffffffffff1681565b60025481565b60035481565b6000808214806108f357508282838502925082816108f057fe5b04145b610965576040517f08c379a000000000000000000000000000000000000000000000000000000000815260040180806020018281038252600e8152602001807f6d756c7469706c69636174696f6e00000000000000000000000000000000000081525060200191505060405180910390fd5b9291505056fe636f6e747261637420626c6e632073686f756c64206265206e6f206f6620746f6b656e736d6173672076616c75652073686f756c6420626520657175616c20746f206d756c2066756ea265627a7a723158204616217385ad9bea93b40eebafd20f14cbcc3565234c83e300b8cb441850b40e64736f6c63430005100032",
  "source": "pragma solidity >=0.4.21 <0.7.0;\r\nimport \"./ZubToken.sol\";\r\n\r\n\r\ncontract ZubTokenSale {\r\n    address payable admin =  0x3906A021ACC2f4791ac63dE654C0Ba3784f1C56e ;\r\n    ZubToken public tokenContract;\r\n    uint256 public tokenPrice;\r\n    uint256 public numberOfTokens;\r\n    uint256 public tokensSold;\r\n    event Sell(address _buyer, uint256 _amount);\r\n\r\n    constructor(ZubToken _tokenContract, uint256 _tokenPrice) public {\r\n        admin = msg.sender;\r\n        tokenContract = _tokenContract;\r\n        tokenPrice = _tokenPrice;\r\n    }\r\n\r\n    function multiply(uint256 x, uint256 y) internal pure returns (uint256 z) {\r\n        require(y == 0 || (z = x * y) / y == x, \"multiplication\");\r\n    }\r\n\r\n    function buyingToken(uint256 _numberOfTokens) public payable {\r\n        require(\r\n            msg.value == multiply(_numberOfTokens, tokenPrice),\r\n            \"masg value should be equal to mul fun\"\r\n        );\r\n        require(\r\n            tokenContract.balanceOf(admin) >= _numberOfTokens,\r\n            \"contract blnc should be no of tokens\"\r\n        );\r\n        require(\r\n            tokenContract.transfer(msg.sender, _numberOfTokens),\r\n            \"msg sender can send token\"\r\n        );\r\n        tokensSold += _numberOfTokens;\r\n        emit Sell(msg.sender, _numberOfTokens);\r\n    }\r\n\r\n    function endSale() public {\r\n        require(msg.sender == admin,'only admin can be master');\r\n        require(tokenContract.transfer(admin, tokenContract.balanceOf(admin)),\"trasnfer & blance\");\r\n        admin.transfer(address(this).balance);\r\n            }\r\n\r\n}\r\n",
  "sourcePath": "C:\\Users\\Lenovo\\Documents\\blockchain studies\\ZubToken\\contracts\\ZubTokenSale.sol",
  "compiler": {
    "name": "solc",
    "version": "0.5.16+commit.9c3226ce.Emscripten.clang"
  },
  "schemaVersion": "3.0.23",
  "updatedAt": "2020-03-31T17:05:32.266Z",
  "networkType": "ethereum",
  "devdoc": {
    "methods": {}
  },
  "userdoc": {
    "methods": {}
  }
}